:020000040800F2
:1000000078190020D5000008FD1B0008171A000809
:1000100000000000000000000000000000000000E0
:100020000000000000000000000000000F1F00089A
:1000300000000000000000001D1E0008111F000845
:10004000E7000008E7000008E7000008E7000008F4
:10005000E7000008E7000008E70000086902000860
:1000600000000000E7000008E70000082D0200087B
:10007000E7000008E7000008E7000008E11F0008AB
:10008000E7000008E7000008E700000800000000A3
:10009000E7000008E7000008E7000008E7000008A4
:1000A000E7000008E7000008E7000008E700000894
:1000B0005D250008E70000080000000000000000C7
:1000C0000348854600F0A0F8004800474526000890
:1000D000781900200448804704480047FEE7FEE7FF
:1000E000FEE7FEE7FEE7FEE78D1F0008C1000008FF
:1000F00030B50B46014600202022012409E00D46C0
:10010000D5409D4205D31D469540491B2546954047
:1001100040191546521E002DF1DC30BDF0B51FB45C
:100120000646002082B005464024019100901BE065
:10013000019922460F46304600F054F8049A059B78
:10014000801A994110D310461946224600F03AF819
:10015000361A8F410197224601200021009F00F0AE
:1001600031F838184D4100902046641E0028DFDC2D
:10017000019B00982946324607B0F0BD03460B4369
:100180009B0703D009E008C9121F08C0042AFAD24D
:1001900003E00B780370401C491C521EF9D27047D3
:1001A000D2B201E00270401C491EFBD2704700220F
:1001B000F6E710B513460A4604461946FFF7F0FF66
:1001C000204610BD10B5202A04DB0146203A91409C
:1001D000002010BD914020239C1A0346E3401943A0
:1001E000904010BD10B5202A04DB0846203AD040CC
:1001F000002110BD0B46D340D0402024A21A9140CC
:100200000843194610BD0000064C0125064E05E0C6
:10021000E36807CC2B430C3C98471034B442F7D327
:10022000FFF752FFA4360008C436000810B5024894
:1002300000F001F910BD0000F410002030B5446C4E
:100240001C252C400125A540046C65600468636092
:100250008368102B036803D099600068C26030BDCA
:100260009A600068C16030BD10B50120C00200F086
:10027000FDF90120000300F0F9F910BD70470000FE
:10028000FEB50646203A00240F46D0B27F2E02D992
:1002900000268F1CFFB2102B0BD0082B57D12C4AF5
:1002A000C00080180190089800280198005D2FD1A7
:1002B0002CE00001019008980028019803D0011952
:1002C0002448405C04E001192248405CC043C0B2AD
:1002D000002502903819009080200299E8400842D9
:1002E000009804D0C1B27019C0B2012203E0C1B2BB
:1002F0007019C0B2002201F05DFD6D1CEDB2082D39
:10030000EAD3641CE4B2102CD5D31EE0C043C0B2C3
:10031000002502903819009080200299E840084298
:10032000009804D0C1B27019C0B2012203E0C1B27A
:100330007019C0B2002201F03DFD6D1CEDB2082D18
:10034000EAD3641CE4B2082CADD301F08DFCFEBDF1
:10035000E1270008D92A0008FFB5002481B01E4615
:100360000546102B03D0082E19D1062713E00827C5
:1003700011E00A980090334628460299FFF780FF63
:10038000E819C5B2782D04D9029800258019C0B2A9
:100390000290641CE4B20398025D002AE9D105B022
:1003A000F0BD30B5014620314A790023022A04D03D
:1003B0000422C2630B71012030BD026814680E254F
:1003C000AC43146002681468640864001460446CF0
:1003D0001C22144001221546006CA54045604A715C
:1003E00018460B7130BD70B50024014620314A79A2
:1003F000022A03D00421C163012418E002681368B3
:100400000E25AB431360026813685B085B00136042
:10041000436C1C221340012215469D40036C5D6015
:100420004A7100220A71816B002900D0884720465A
:1004300070BDC06B7047F0B4016C0D6801680C684A
:10044000466C1C2304221E401746B7402F420ED094
:1004500067070CD50C68A40602D40C6894430C60A2
:10046000416C19408A40016C4A60016B1AE0022716
:10047000B74002462F402032002F17D0A70715D5CE
:100480000C68A40605D40C680A25AC430C60012155
:100490005171446C02211C40036CA1405960002141
:1004A0001171C16A002918D0F0BC08470827B7406D
:1004B0002F4212D0240710D50C680E25AC430C60D7
:1004C000446C01211C400B46A340046C6360C16373
:1004D000517100211171416BE4E7F0BC70470000DD
:1004E00070B504003CD01F48256814212818FFF778
:1004F000FFFD800060641C482064022120462030FB
:100500000246417129681948E3680140A06866699C
:100510001843236933431843A3691843E369184315
:10052000236A1843084328600121A0688903884290
:1005300010D00D488030836A656C1C210D400F2659
:10054000AE40B3438362656C63680D40816AAB4023
:100550000B4383620020E06301215171107170BD73
:10056000012070BDF8FFFDBF000002400F80FFFFBB
:10057000F8B504468C46203001790025012909D0C0
:100580000126067141790027012905D0077102254E
:100590002846F8BD0220F8BD02214171E7632068BA
:1005A000016849084900016061462046FFF746FEA0
:1005B000206B00282068016801D00E2205E004228B
:1005C00091430160206801680A221143016020689C
:1005D000016831430160DBE770B5044600F020F9A3
:1005E0000546601C02D004480078241800F018F971
:1005F000401BA042FAD370BD0C000020F8B5164F86
:100600000121C902384600F0FFF8014613480125D0
:1006100000260324012906D00670114801880A2902
:1006200003D9048003E0057001E0491C0180012129
:100630000903384600F0E8F80A49012806D00A48BC
:100640000E7001880A2903D90480F8BD0D70F8BD29
:10065000491C0180F8BD0000000800500400002083
:1006600008000020050000200A00002010B5044901
:100670004A69024202D04861FFF7C0FF10BD000086
:1006800000040140FCB500230124A7E027462A46C8
:100690009F403A406FD04D68012D05D0022D03D008
:1006A000112D01D0122D16D185680326AC465D00B0
:1006B000AE46AE406546B543AC46CE687546AE40E4
:1006C00065462E43866046680D79BE43ED06ED0F04
:1006D0009D4035434560C6685F000325BD40AE467A
:1006E000AE4335468E68BE402E43C6604E68022E2D
:1006F00001D0122E14D1DE08B60036180196366AE3
:100700005D07B446EE0E0F25B54000966646AE4333
:10071000B4460D69009EB54066462E43019D2E628B
:1007200006687546AE430D79AD07AD0FBD40354344
:1007300005604D68ED0050D52B4D6E6B26436E6302
:100740009E082A4DB6007519AC46AD689E07360F57
:100750000F27B740BD4305273F07B84201D1002707
:100760001AE0234FB84201D1012715E0214FB842CA
:1007700002D1022710E030E01F4FB84201D1032719
:100780000AE01E4FB84201D1042705E01C4FB842D1
:1007900001D1052700E00627B7402F436546AF602B
:1007A000184D2E684F689643FF0300D516432E6000
:1007B0006E684F689643BF0300D516436E60AE68FF
:1007C0004F689643FF0200D51643AE60EE684F684F
:1007D0009643BF0200D51643EE605B1C0A681546BF
:1007E000DA4000D052E7FCBD00100240000001409A
:1007F0000004005000080050000C00500010005091
:10080000001C0050000401400069084000D0012095
:100810007047002A01D081617047816270470000F3
:1008200001488068704700000C0000200248816881
:1008300002788918816070470C00002010B50848C4
:1008400000240168402211430160204600F00AF8AC
:10085000002801D0012401E000F026F8204610BD58
:100860000020024070B504460D4D7D202978C0005F
:10087000FFF73EFC01460B480068FFF739FC00F02B
:10088000B9FD002809D1042C07D200222146401EC0
:1008900000F020F800206C6070BD012070BD0000E9
:1008A0000C000020180000200448416B0122114375
:1008B0004163816B02041143816370470010024061
:1008C000C106C90E01208840014908607047000038
:1008D00000E100E010B501F093F910BDF8B5044651
:1008E0000078594D800672D5574E0027403EB06BB8
:1008F000C00004D4B06BA9050843B0630127534876
:100900000168C90511D40168821511430160FFF720
:1009100087FF009005E0FFF783FF0099401A6428E5
:1009200037D84A480068C005F5D532680321090563
:1009300060680A400140914208D08103890F032971
:1009400004D13168890301D50120F8BD2A6903214A
:1009500009040A4022D0084090421FD02078800627
:100960001CD528692A6988430121C9040A432A61E0
:100970002A698A432A612861C0050FD5FFF750FF15
:10098000009008E0FFF74CFF0099411A304881427F
:1009900001D90320F8BD28698005F3D56168880373
:1009A000800F032805D132680005824301400A43C5
:1009B00032602869032261681204114008432861EB
:1009C000002F04D0B16B012000078143B163207870
:1009D000C00705D0E868A168800880000843E86087
:1009E0002078800705D5E8680C218843E168084332
:1009F000E8602078400706D5E8680321890288432B
:100A000021690843E8602078000706D5E8680321DB
:100A10000903884361690843E8602088C00506D55A
:100A2000E868032109048843A1690843E860207845
:100A3000000606D5E868032189048843E169084374
:100A4000E8600020F8BD0000401002400070004047
:100A500088130000F8B50E4605007DD053480068A5
:100A6000C007C00FB0420AD2504801684908490087
:100A7000314301600068C007C00FB04271D12878CF
:100A80004B4C800705D5E068F0218843A9680843EE
:100A9000E0602878C00752D06868022817D0032881
:100AA00018D02168012818D08905002959DAE16891
:100AB000890889000143E160FFF7B2FE69680746D3
:100AC000022912D003291CD0012926D033E0216845
:100AD0008903EAE721688901E7E74907E5E7FFF7C6
:100AE0009FFEC11B3348814223D8E0680007800F76
:100AF0000228F4D123E0FFF793FEC11B2D48814269
:100B000017D8E0680007800F0328F4D117E0FFF73B
:100B100087FEC11B274881420BD8E0680007800F81
:100B20000128F4D10BE0FFF77BFEC11B2148814275
:100B300001D90320F8BDE0680007800FF3D11B48FE
:100B40000168C907C90FB1420DD9016849084900B8
:100B500031430160006800E003E0C007C00FB0420D
:100B600001D00120F8BD2878400706D5E0680721AC
:100B700009028843E9680843E0602878000707D540
:100B8000E0680721C90288432969C9000843E06079
:100B900000F036F8E168084A0906090F515CC840C0
:100BA000064908600020FFF75DFEF8BD0020024006
:100BB0000010024088130000C02700081800002021
:100BC000044805490068C968044A4905490F515C51
:100BD000C84070471800002000100240D9270008C4
:100BE000044805490068C968044A8904490F515CF2
:100BF000C84070471800002000100240D9270008A4
:100C000010B5184AD1680C20084004280BD00828D9
:100C100010D00C2810D050680004410F0120C003F0
:100C2000491C884010BD1068C00601D50E4810BD93
:100C30000E4810BD0E4810BD88020E4B000F185C08
:100C40000902D368890F491CDB0301D5084A05E076
:100C50001268D20601D5044A00E0044A5043FFF767
:100C600047FA10BD0010024000093D000024F400C6
:100C700000127A00D0270008FEB505007ED0FE4C99
:100C8000E7680C20E6680740012000040640287849
:100C9000C00747D0082F05D00C2F0AD1012000042F
:100CA000864206D1206880033CD568680028E5D0DC
:100CB00038E0012069680004814203D121680143C2
:100CC000216011E0052301221B049204994221684E
:100CD00002D111432160F1E7814321602168014085
:100CE0000091206890432060686800280DD0FFF7CD
:100CF00097FD009005E0FFF793FD0099401A6428E6
:100D00007ED820688003F6D50CE0FFF789FD0090BF
:100D100005E0FFF785FD0099401A6428F0D82068A7
:100D20008003F6D4287880075CD5E868810604D56E
:100D3000226820210A43226088430923042F0DD012
:100D40000C2F01D1002E09D000283BD021689943F7
:100D500001432160FFF764FD064627E0216849074B
:100D600001D500288AD061681F22120291432A69A6
:100D70001202114361602168994300E08EE1014352
:100D80002160FFF73DFFE16809060A0FBB49895C56
:100D9000C840BB4908600020FFF764FD002873D1FC
:100DA00020E0FFF73DFD801B0228A9D820684007FE
:100DB000F7D560681F2109028843296909020843A1
:100DC00060600FE02068400840002060FFF728FDC9
:100DD000064604E0FFF724FD801B022890D8206817
:100DE0004007F7D42878C00660D5002F0DD0A86939
:100DF00000284AD02068FF2101310843206000E02C
:100E0000C4E0FFF70DFD06462CE02068800502D502
:100E1000A8690028A6D06068072149038843296A89
:100E2000084360606068297F0002000A09060843E1
:100E30006060286A410B0120C003491C8840E168BA
:100E400009060A0F8D49895CC8408D490860002059
:100E5000FFF708FD002817D128E0FFF7E1FC801B11
:100E60000228A2D820688005F7D5606807214903C9
:100E70008843296A084360606068297F0002000A8D
:100E800009060843606011E0E1E02168FF200130BD
:100E900081432160FFF7C4FC064604E0FFF7C0FC75
:100EA000801B022872D820688005F7D42878754EF8
:100EB000000724D568690028306910D00121084353
:100EC0003061FFF7ADFC009005E0FFF7A9FC009949
:100ED000401A02285AD830698007F6D50FE040083A
:100EE00040003061FFF79CFC009005E0FFF798FCA4
:100EF0000099401A022849D830698007F6D428782A
:100F0000400765D500200290A06BC00006D4A06BFE
:100F1000012109070843A063012002905A48016893
:100F2000C90511D40168821511430160FFF778FCEF
:100F3000009005E0FFF774FC0099401A642825D85A
:100F400051480068C005F5D5FF20AA6801308242EB
:100F500003D131690143316111E001218902002A85
:100F600007D005231B029A4203D132690A4332613A
:100F7000EFE7326982433261306988433061A868A3
:100F800000280FD0FFF74CFC009007E05EE0FFF771
:100F900047FC0099411A3D48814257D83069800585
:100FA000F5D50DE0FFF73CFC009006E0FFF738FCBC
:100FB0000099411A3548814248D830698005F5D4F6
:100FC0000298002804D0A16B012000078143A1638F
:100FD000686A002864D00C2F3ED00126360602280D
:100FE000206805D0B0432060FFF71AFC05462FE0CB
:100FF000B0432060FFF714FC074604E0FFF710FC45
:10100000C01B022822D820688001F7D4E96AA86AA8
:10101000E2680843296BFD231B049A4311430843EC
:10102000E060206830432060FFF7FAFB054604E0EB
:10103000FFF7F6FB401B022808D820688001F7D58F
:101040002EE0FFF7EDFB401B022801D90320FEBD77
:1010500020688001F5D423E00128F8D0E068012160
:101060000904AA6A0140914218D10F218904EA6A51
:101070000140914212D10BE000100240C02700084D
:10108000180000204010024000700040881300004B
:10109000032189050840296B884201D00120FEBD4B
:1010A0000020FEBDF8B51D4616460F46040003D0CD
:1010B000606F002802D007E00120F8BD00217020F9
:1010C0000155204600F0EAFB242060672068016893
:1010D000490849000160204601F0F0F80128ECD0F1
:1010E000606A002802D0204600F0EDFF2068816889
:1010F0000122920311438160216888685200904365
:101100003843886071052804226808431168064B3B
:1011100019400143116020680168012211430160F8
:10112000204601F035F8F8BDFFFF00FC70B5040063
:1011300007D0002625464035A662687C002802D0EC
:1011400005E0012070BD2E74204600F02FF802202B
:10115000687420680168402291430160A16860685A
:1011600022690843E1681143084361690122084389
:10117000A169520211400843E1690843216A08430A
:10118000A16A084321680860A0690421000C084096
:10119000616A0843216848602068C16992009143F0
:1011A000C161666501206874002070BD10B586B00D
:1011B000044614216846FEF7FAFF10492068884269
:1011C00019D10F48416B821411434163C16A012256
:1011D0001143C162C06A002110400590E0200090D8
:1011E000022001900320039002910491052069469A
:1011F0000007FFF747FA06B010BD000000300140BD
:1012000000100240FFB5044683B001200190002089
:10121000264640360090307C0C9F1D4601280FD09A
:1012200001203074FFF7FCFA0290707C616801289D
:101230000DD0CA1FFD3A08D1A168002905D102E0EE
:10124000022007B0F0BD042801D00220C3E00498BA
:10125000002828D00598002825D0002D23D0707CA8
:10126000042801D005207074002060650599A163F1
:10127000E587A58704992163E586A58620646064D7
:1012800020680168490603D40168402211430160C7
:101290000121E068C9028842606848D1002804D072
:1012A000012D02D03CE0012095E0206B21680088F0
:1012B000C860206B801C2063E08E401EE0862FE01B
:1012C00020688168890710D5E18E00290DD0019929
:1012D00001290AD1216B0988C160206B801C206321
:1012E000E08E401EE0860020019020688168C907DA
:1012F0000DD0E18F00290AD0C068A16B0880A06BD7
:10130000801CA063E08F401EE08701200190FFF762
:1013100087FA01460298081AB84201D3781C59D1BD
:10132000E08E0028CCD1E08F0028C9D146E000280B
:1013300001D0012D3CD1206B216800780873206B0F
:10134000401C2063E08E401EE08631E0206881680A
:10135000890710D5E18E00290DD0019901290AD104
:10136000216B09780173206B401C2063E08E401EC6
:10137000E0860020019020688168C9070DD0E18FC8
:1013800000290AD0C068A16B0870A06B401CA06344
:10139000E08F401EE08701200190FFF741FA02999B
:1013A000401AB84202D3781C02D013E0002F11D0AB
:1013B000E08E0028CAD1E08F0028C7D139462046E8
:1013C000029A00F03DFD002807D001200090202067
:1013D000606509E00320009006E0A068002803D1C2
:1013E0002068C1688068019001207074002030740A
:1013F000009826E7094910B5401E884201D901200E
:1014000010BD074C60610321081F00F0F9FB0020AC
:10141000A06107202061002010BD0000FFFFFF0039
:1014200000E000E0F0B502462032137E012B15D01B
:10143000012717760223537605686C68AB6870261F
:10144000B4430E68496826438024A34319436E6061
:1014500000688160577600201076F0BD0220F0BD54
:1014600070B5040005D025462035687E002802D0DE
:1014700006E0012070BD00202876204600F00AF822
:1014800002206876211D206800F0B2FD01206876F8
:10149000002070BD10B500680121890788420CD179
:1014A0000648816B012211438163002211460F20FF
:1014B000FFF710FA0F20FFF703FA10BD00100240EB
:1014C0000268D36801210B43D36000688268520729
:1014D000520F062A02D002680A43026000207047B9
:1014E000F8B5054604462035287E012817D0012688
:1014F0002E7602206876226890687727FF23B8430B
:101500001B02984390600A68502A31D00EDC202AD2
:101510004BD006DC002A48D0102A3AD145E0022000
:10152000F8BD302A41D0402A33D136E0602A27D096
:10153000702A12D001200003121A2AD0824228D128
:10154000CB684A688968206800F086FD2068816859
:1015500001229203114381601BE0CB684A688968CD
:10156000206800F079FD216888683843886010E0C1
:10157000CA684968206800F082FD5021206806E0B2
:10158000CA684968206800F08BFD6021206800F07F
:101590006EFD6E7600202876F8BDCA68496820681E
:1015A00000F06DFD40212068F1E711462068EEE76C
:1015B000704770B50446006801690025C943890772
:1015C000002915DBC168C943890711D4E91E0161EF
:1015D00001202076206880698007204602D0FFF72E
:1015E000E7FF04E000F078F8204600F076F8257672
:1015F00020680169C943490717D4C168C94349072D
:1016000013D40421C9430161022020762068806937
:101610008005800F204602D0FFF7CAFF04E000F0EB
:101620005BF8204600F059F8257620680169C94327
:10163000090716D4C168C943090712D40821C94350
:101640000161042020762068C0698007204602D00E
:10165000FFF7AEFF04E000F03FF8204600F03DF851
:10166000257620680169C943C90617D4C168C943F2
:10167000C90613D41021C9430161082020762068CF
:10168000C0698005800F204602D0FFF791FF04E07B
:1016900000F022F8204600F020F825762068016945
:1016A000C943C90708D1C168C943C90704D1891E04
:1016B0000161204600F012F820680169C94349061B
:1016C00009D4C168C943490605D44021C943016111
:1016D000204600F01FF870BD7047704708498842E7
:1016E0000CD1084801880120032901D3064908705C
:1016F00006490988032901D305490870704700008D
:101700003C11002008000020060000200A000020F4
:10171000070000207047704710B50446406FA16F66
:1017200020688268520614D5222912D1816840228D
:1017300091438160E06E002808D0FEF732FE002859
:1017400004D0E06EFEF775FE202804D0204600F09D
:10175000A5FD002010BD1020E067032010BD7047DC
:10176000F8B502680446D0691168936805072D0F23
:101770005BD0DD07ED0FFF2621360E402E4367D0EC
:10178000C60706D0CE0504D501261662E26F3243A5
:10179000E267870702220426002F06DADF0704D05B
:1017A00027683A62E76F3743E767470706D5DB07E5
:1017B00004D023681E62E36F1343E367020709D571
:1017C00020220A402A4305D0236808221A62E36FC8
:1017D0001343E367E26F002A2FD0800606D5880600
:1017E00004D5216E002901D020468847E06F21688A
:1017F0008968490601D4000724D5204600F04EFD33
:1018000020688168490619D581684022914381602A
:10181000E06E002812D020498163E06EFEF7E3FD00
:1018200000280AD0E06E816B06E0850610D58D0693
:101830000ED5216E1CE020468847F8BD2046FFF7F4
:101840008EFFF8BD2046FFF78AFF0020E067F8BD55
:10185000C50208D55B0206D50120000510622046AE
:10186000FFF759FFF8BD030605D50B0603D5616EDA
:101870000029E0D1F8BD4006FCD54806FAD513682A
:10188000204640218B43136020216167002161665F
:1018900000F0C0F8F8BD0000F1210008F0B587B0F5
:1018A000064614216846FEF782FC264930688842C5
:1018B00046D12549886B0122520410438863C86AC7
:1018C00001221043C862C86A0025104005900E200E
:1018D0000090022001900320039004270520029528
:1018E000694604970007FEF7CDFE194C1748A5601E
:1018F000E56081C4E56080202561A0602020A561AD
:1019000060611348083CFEF7EBFD002801D0FEF7AC
:10191000B5FCF466002201211C20A662FEF7DAFF66
:101920001C20FEF7CDFF0A488038006801681022AD
:10193000114301600648D2010649803800F00CF8D6
:1019400007B0F0BD004400400010024058000240C3
:10195000F41000201C000020F8B50446806F2028F9
:101960004DD100290BD0002A09D00123A0681B0308
:10197000984206D12069002803D1C80701D0012070
:10198000F8BD25466035287C012838D00120287410
:101990005820616502530026E6672220A067E06EAA
:1019A000002819D01749C162E16E17480863E16E3B
:1019B00016484863E06E13468663676D21683A46B1
:1019C0002431E06EFEF7D4FD002805D01020E0673A
:1019D0002E7420206067D2E72E7420680168FF22F1
:1019E0000132114301602068816801221143816046
:1019F000206881684022114381600020F8BD0220E8
:101A0000F8BD0000552200089322000805220008B6
:101A1000704770477047FEE708B50848016B012220
:101A200011430163006B10400022009011460B200F
:101A3000FEF750FF0B20FEF743FF08BD00100240E9
:101A4000F0B587B014216846FEF7B1FB2B48C26A97
:101A500080210A43C262C26A0A400592C16A012516
:101A60002943C162C16A29400591C16A0224214308
:101A7000C162C16A21400591C26A04210A43C2625F
:101A8000C06A052708403F0705900022102138460C
:101A9000FEF7BFFE0D263603012231461848FEF739
:101AA000B8FE1020009002946946019503943846D0
:101AB000FEF7E8FD019569461148009602950394EA
:101AC000FEF7E0FD0F480190032400200E4DE402D4
:101AD0000290009469462846FEF7D4FD0022214674
:101AE0002846FEF796FE012200210720FEF7F2FEAF
:101AF0000720FEF7E5FE07B0F0BD00000010024031
:101B000000040050000031100008005010B50E48CD
:101B10000C490160FF210531416000218160C160F5
:101B200001614161C161012201625202416282612F
:101B300081620721C162FFF7F9FA002801D0FEF7A0
:101B40009DFB10BD003001401C10002010B586B078
:101B500000240094012118480194029403940494F1
:101B60008907059401607D21090284604160046158
:101B700012494461C160FFF773FC002801D0FEF7F1
:101B80007DFB01200003009069460B48FFF7A8FC8D
:101B9000002801D0FEF772FB049404A906480594BE
:101BA000FFF740FC002801D0FEF768FB0248FFF772
:101BB00087FC06B010BD00003C110020E02E0000A4
:101BC00010B50D480B490160E12149024160002137
:101BD0008160C16001618161C1610C220162426169
:101BE0000B4641620A46FFF75DFA002801D0FEF776
:101BF00045FB10BD004400407410002070470000F9
:101C00008307FF22DB0E9A408907090E99400028BE
:101C10000BDA0007000F0838830808489B001818E3
:101C2000C36993430B43C3617047830804489B0017
:101C30001B181868904308431860704700ED00E0D7
:101C400000E400E0012110B58902002804D0FF2241
:101C50000448FEF7A5FA02E00248FEF7A8FA00F0F1
:101C600003F810BD78110020F8B50F4F002420466E
:101C70000021B03000F0B2F80021084600F0AEF8C4
:101C80000021102000F0AAF80025E6017019385C48
:101C9000012100F0A3F86D1CEDB2802DF6D3641C79
:101CA000E4B2082CE3D3F8BD7811002010B500F0A1
:101CB00065F80021AE2000F091F80021084600F000
:101CC0008DF80021102000F089F80021402000F05C
:101CD00085F80021B02000F081F80021812000F07B
:101CE0007DF80021FF2000F079F80021A12000F00C
:101CF00075F80021A62000F071F80021A82000F05E
:101D00006DF800213F2000F069F80021C82000F0A4
:101D100065F80021D32000F061F80021084600F0AA
:101D20005DF80021D52000F059F80021802000F056
:101D300055F80021D92000F051F80021F12000F0E1
:101D40004DF80021DA2000F049F80021122000F0BF
:101D500045F80021DB2000F041F80021302000F0A0
:101D60003DF800218D2000F039F80021142000F00A
:101D700035F80021AF2000F031F810BD70B5012218
:101D80000B4D140321462846FEF743FD6420FEF761
:101D900023FC002221462846FEF73BFD6420FEF787
:101DA0001BFC012221462846FEF733FD70BD0000D2
:101DB0000004005030B54D076D0F0123AB40C9083A
:101DC000054CC9010918605C002A01D0184300E0E5
:101DD0009843605430BD00007811002070B504466F
:101DE000012080030C4D002901D0012200E00022D7
:101DF00001462846FEF70DFD0126F6030022314676
:101E00002846FEF706FDE0B200F00AF8012231464E
:101E10002846FEF7FEFC70BD00040050704700002D
:101E200001B582B07D20C0000090012301AA02A963
:101E30000248FFF7E7F9684600790EBD1C10002044
:101E400038B504464068FF2305332025984204D165
:101E500000920B460022802107E05120005D0528FA
:101E60000DD100920B4600220121204600F009F816
:101E7000002804D0606D28436065032038BD002031
:101E800038BDF8B51D4617460E46044609E0681CE5
:101E900007D0FEF7C5FC0699401AA8420BD2002DC8
:101EA00009D020688168304688432ED00020B8428F
:101EB000EDD10020F8BD20684168E02291434160E7
:101EC0006068C11FFD390CD10121A068C903884297
:101ED00002D04911884204D1206801684022914310
:101EE00001600120A16A4003814207D121680A688C
:101EF00082430A6021680A6802430A600120403474
:101F00006074002020740320F8BD0120CFE77047E3
:101F100010B5FEF78BFC10BD30B59BB03421684680
:101F2000FEF745F914210DA8FEF741F9202112A86A
:101F3000FEF73DF9144801680322D2029143C2140E
:101F40008918016002250120039010200995049052
:101F500080030B900001009500240C900A946846C1
:101F6000FEF78AFE0F200D9003200E900F94109420
:101F7000012111940DA8FEF76DFD12A8129515947C
:101F8000FEF7ACFC1BB030BD00700040104801688B
:101F9000821511430160C1680E4A1140C160016899
:101FA0000D4A11400160816849084900816001685B
:101FB0000122920491430160C168FD221204914301
:101FC000C160002101610549C003886070470000BD
:101FD000001002400C40FF88F6FFF6FE00ED00E026
:101FE00010B50248FFF7E5FA10BD00003C110020D3
:101FF000F0B502680124A407144D154E154FA042F8
:1020000005D0A84203D0B04201D0B84204D1134653
:10201000702293434A681A43A04205D0A84203D0D5
:10202000B04201D0B84204D103231B029A43CB68CB
:102030001A4380239A430B691A4302608A68C2627A
:102040000968816201214161F0BD00000004004087
:10205000000801400014014030B58468FF252D02BE
:102060001B021343AC430B432343836030BD8268A0
:1020700070239A430A4307210A438260704730B5B0
:10208000036A046A6408640004628469F025AC434E
:10209000120122430A24A3430B438261036230BD31
:1020A00030B5036A1024A34303628469036A0F25D1
:1020B0002D031203AC432243A024A3430901194377
:1020C0008261016230BD10B5818CC90707D00168FB
:1020D0004A6801235B049A43836A1A434A60818CED
:1020E000890707D501684A6801231B049A43C36A1C
:1020F0001A434A60818C490707D501684A68012361
:102100009B049A43036B1A434A60818C090707D5E5
:1021100001684A680123DB039A43436B1A434A6010
:10212000818CC90607D50268916801231B03994376
:10213000836B19439160818C890607D501688A6891
:1021400001235B039A43C36B1A438A60818C49065F
:1021500012D503685A6801210905046C8A43224399
:102160005A60026C8A4207D10268516803235B05FA
:102170009943436C19435160818C090607D5016866
:102180004A680123DB04806C9A4302434A6010BD15
:10219000F8B500260446C667FEF742FB05462068F0
:1021A0000068124F000709D501212B46002249057E
:1021B0002046009700F0A0F900280DD120680068A3
:1021C00040070BD501212B460022890520460097A8
:1021D00000F092F9002801D00320F8BD20206067AC
:1021E000A067603426740020F8BD0000FFFFFF01E7
:1021F00010B5806A0022014640314A834A82FFF7C7
:10220000AEFA10BD70B5846A626FA06F21688968EC
:102210000B060021002B0ADA212A08D15222115381
:1022200022681368C025AB431360202262672268CE
:102230009268520606D5222804D15A20015320461E
:1022400000F02CF8E06F10210843E0672046FFF70C
:1022500086FA70BD10B501460968806A096889066A
:1022600014D400225A210A5201680A68FF2301335C
:102270009A430A6001688A68520852008A600168BD
:102280008A6840239A438A6020218167FFF7C0FB58
:1022900010BD10B5806AFFF7BCFB10BD01680A686D
:1022A000FF2321339A430A6001688A68520852006A
:1022B0008A6020218167002101667047F8B50446D5
:1022C0002669A268E76932436669102000253E430B
:1022D000236832437B491E687B4F3E4016431E6095
:1022E0002268536803263603B343E66833435360DA
:1022F0002368A2698B4201D0266A32439E680B276D
:102300003F02BE4316439E60704E2368704AB3423C
:102310000CD1D2689207920F06D0012A3ED0022A31
:102320003AD0032A26D124E0012023E0694EB342AB
:102330000AD1D2680C2632402CD0042A2ED0082A8A
:102340002AD00C2A16D114E0634EB34222D0634E39
:10235000B3421FD08B420DD1D668032292021640A1
:1023600018D001229202B61A18D0B61A14D096428A
:1023700000D10820564A0126403A594FF6038B42B5
:1023800036D100280CD002280DD0042812D00828FD
:102390001FD11CE00020EDE70220EBE70420E9E775
:1023A000FEF70EFC08E01068C00601D5384605E0CF
:1023B0004C4803E0FEF724FC002873D0626851000B
:1023C0005118814205D81103814202D303E03046FF
:1023D000F4E7012566E0010E0602500800233018DC
:1023E0005941FDF79BFE03210902411A3E4A55E07F
:1023F000E169B14232D1030000F008F909070A0D82
:1024000006250606062B0600E3E7FEF7D9FB1CE0CF
:10241000FEF7E6FB19E010686168C00602D54808BF
:10242000324A01E0324A48088018FDF761FE80B266
:102430000146304A10399142CBD8511C0140000767
:10244000400F08432CE0FEF7DBFB616840004A08C0
:10245000EAE76168012248081204E5E7030000F09A
:10246000D5F809070A0D06260606062C0600B0E771
:10247000FEF7A6FB1DE0FEF7B3FB1AE010686168EB
:10248000C00602D54808C01902E016484A081018CC
:10249000FDF72EFE80B20146164A1039914298D8B7
:1024A0002168C8600020206660662846F8BDFEF7F7
:1024B000A7FB61684A088018EAE761684808801944
:1024C000E6E7000000480040F369FFEF00380140F4
:1024D0004010024000440040004C004000500040CA
:1024E00000093D000024F400FFFC0F0000127A00F8
:1024F0000048E801EFFF0000FFB581B017460E4627
:1025000004460A9D09E0681C07D0FEF789F9049982
:10251000401AA8420CD8002D0AD02068C169304664
:10252000884318D00020B842EDD0002005B0F0BD9F
:1025300020680168FF22A132914301602068816810
:1025400049084900816020206067A067002060344E
:1025500020740320EAE70120E5E7000010B52348D6
:102560000068C2692249914328D0102101621F48A6
:10257000FFF7D2F81F48006840680124E402201ADF
:1025800082B21D481E4902801C480378FF2B0ED1E1
:102590004378AA2B0BD18379002B08D1C379012B67
:1025A00005D1037AC22B02D1407A00280AD000203C
:1025B0000870224611490D48FFF7CEF90B48FFF786
:1025C000CFF810BD012008700C490E48FDF7D6FD6C
:1025D00021460A48FDF7EBFD0B4801780A2901D98D
:1025E000032100E0491C0170E3E7000074100020A3
:1025F00024040000F4100020000000201C00002033
:10260000020000201C0800200300002030B47446A3
:10261000641E2578641CAB4200D21D46635D5B00DE
:10262000E31830BC184702E008C8121F08C1002A8E
:10263000FAD170477047002001E001C1121F002A43
:10264000FBD1704708B5FEF7F9F8FFF765FCFFF717
:10265000F7F9FFF7E1F9FFF759FAFFF7B1FAFFF7DA
:1026600025FB0020FFF7EEFA0026424C0125E6800C
:102670002681A670E67066712671667008233EA2F8
:10268000314610200095FDF767FE08233CA200218B
:1026900048200095FDF760FE10233BA20A21184652
:1026A0000095FDF759FE10233AA21E211846009509
:1026B000FDF752FE10233AA2322118460095FDF78D
:1026C0004BFEFFF743FAA0780095002802D00823BC
:1026D00036A201E0082336A200213020FDF73CFE9F
:1026E000E0780095002802D0082330A201E00823FA
:1026F0002FA200216820FDF72FFE2078012810D19D
:1027000005273F07012210213846FEF782F87D2079
:10271000C000FDF761FF002210213846FEF779F86E
:10272000267060780095032802D3102321A201E0CF
:10273000102321A20A216420FDF70EFE20790095C6
:10274000002802D010231DA201E010231AA21E218E
:102750006420FDF701FE60790095002802D0102367
:1027600016A201E0102314A232216420FDF7F4FD2B
:10277000A9E7000002000020494F313A2000000084
:10278000494F323A200000003438352064617461CA
:102790003A200000494F3120646174613A20000002
:1027A000494F3220646174613A2000004800000003
:1027B0004C0000004F4B00004E6F20005965730025
:1027C00000000000000000000102030406070809E1
:1027D000030406080C10182030000000000102035A
:1027E0000400000000000000001010101000100095
:1027F00000282828000000000028287C287C2828A1
:1028000000103C503814781000004C2C1008606008
:1028100000304850205448340030102000000000A0
:1028200000081020202010080020100808081020A0
:102830000000105438541000000010107C101000DC
:10284000000000000000180810000000007C0000DC
:10285000000000000000303000000408102040009C
:102860000038444C546444380010301010101038B4
:10287000003844040810207C007C08100804443808
:1028800000081828487C0808007C40780404443874
:102890000018204078444438007C04081020202090
:1028A0000038444438444438003844443C04083038
:1028B0000000303000303000000030300030102098
:1028C00000081020402010080000007C007C000060
:1028D00000201008040810200038440408100010DC
:1028E00000384404345C443800102844447C444498
:1028F00000784444784444780038444040404438A8
:102900000070484444444870007C40407840407C1B
:10291000007C404078404040003844405C44443CA7
:10292000004444447C4444440038101010101038D3
:10293000001C0808080848300044485060504844CB
:10294000004040404040407C00446C545444444467
:1029500000444464544C444400384444444444389F
:10296000007844447840404000384444445448345B
:102970000078444478504844003C4040380404788F
:10298000007C10101010101000444444444444389B
:1029900000444444444428100044444454545428BB
:1029A0000044442810284444004444442810101093
:1029B000007C04081020407C003820202020203893
:1029C00000004020100804000038080808080838F3
:1029D0000010284400000000000000000000007CFF
:1029E000002010080000000000000038043C443CB7
:1029F0000040405864444478000000384040443867
:102A0000000404344C44443C00000038447C40380A
:102A100000382420702020200000003C44443C0466
:102A200038404058644444440010003010101038BE
:102A300000080018080808483040404850605048D6
:102A40000030101010101038000000685454444436
:102A500000000058644444440000003844444438B2
:102A60000000005864645840400000344C4C34046A
:102A700004000058644040400000003C40380478A6
:102A800000202070202024180000004444444C34CE
:102A900000000044444428100000004444545428DA
:102AA00000000044281028440000004444443C0432
:102AB0003800007C0810207C0010202040202010CE
:102AC000000010101010101000201010081010201E
:102AD000000000002054080000000000000000007A
:102AE0000000000000000000000000001818181886
:102AF00018181800001818000000123624480000AA
:102B0000000000000000000000000000242424FE5B
:102B1000484848FE484848000000001038545450C7
:102B2000301C1414545438101000000044A4A8A8F9
:102B3000A8541A2A2A2A44000000000030484848B5
:102B4000506EA494888976000000606020C0000068
:102B5000000000000000000000000204080810103F
:102B6000101010100808040200004020101008087F
:102B7000080808081010204000000000001010D6BF
:102B80003838D610100000000000000000101010AF
:102B900010FE1010101000000000000000000000E7
:102BA0000000000000606020C00000000000000085
:102BB000007F000000000000000000000000000096
:102BC0000000000000606000000000010202040438
:102BD0000808101020204040000000001824424245
:102BE00042424242422418000000000010701010BF
:102BF0001010101010107C00000000003C424242F7
:102C00000404081020427E00000000003C42420400
:102C1000180402024244380000000000040C14248E
:102C20002444447E04041E00000000007E40404016
:102C30005864020242443800000000001C24404056
:102C40005864424242241800000000007E424408BA
:102C50000810101010101000000000003C4242420A
:102C60002418244242423C00000000001824424242
:102C700042261A020224380000000000000000185A
:102C800018000000001818000000000000000018E4
:102C90001800000018180830000000000204081096
:102CA000204020100804020000000000000000FE88
:102CB000000000FE0000000000000000402010089E
:102CC0000402040810204000000000003C42426260
:102CD00002040808001818000000000038445AAA2E
:102CE000AAAAAAB442443800000000001010182814
:102CF00028243C444242E70000000000F8444444D9
:102D0000784442424244F800000000003E424280C3
:102D1000808080804244380000000000F844424235
:102D2000424242424244F80000000000FE4248484D
:102D3000784848404242FE0000000000FE424848F9
:102D4000784848404040E000000000003C44448097
:102D500080808E844444380000000000E7424242F4
:102D6000427E42424242E700000000007C10101008
:102D70001010101010107C00000000003E08080821
:102D80000808080808080888F0000000EE444850C9
:102D9000705048484444EE0000000000E0404040CD
:102DA000404040404042FE0000000000EE6C6C6C71
:102DB0006C5454545454D60000000000C762625250
:102DC000524A4A4A4646E2000000000038448282E5
:102DD000828282828244380000000000FC4242422B
:102DE000427C40404040E0000000000038448282C5
:102DF000828282B2CA4C380600000000F844444483
:102E0000784848444442E300000000003E4242400B
:102E10002018040242427C0000000000FE921010C4
:102E2000101010101010380000000000E74242425D
:102E30004242424242423C0000000000E74242441B
:102E4000242428281810100000000000D692929226
:102E500092AAAA6C4444440000000000E7422424E3
:102E6000181818242442E70000000000EE4444280B
:102E70002810101010103800000000007E84040894
:102E8000081020204242FC0000001E1010101010FC
:102E9000101010101010101E0000004040202010D4
:102EA000100804040202020101007808080808085A
:102EB0000808080808080878000008142200000024
:102EC0000000000000000000000000000000000002
:102ED0000000000000000000FF0060100000000083
:102EE00000000000000000000000000000000000E2
:102EF0003C421E2242423F0000000000C0404040D1
:102F00005864424242645800000000000000000083
:102F10001C22404040221C00000000000602020269
:102F20001E22424242261B0000000000000000005A
:102F30003C427E4040423C00000000000F11101057
:102F40007E10101010107C00000000000000000037
:102F50003E444438403C42423C000000C0404040B7
:102F60005C6242424242E700000000003030000054
:102F70007010101010107C00000000000C0C0000FD
:102F80001C0404040404044478000000C0404040D1
:102F90004E4850684844EE000000000070101010C9
:102FA0001010101010107C00000000000000000045
:102FB000F64949494949ED000000000000000000C1
:102FC000DC6242424242E7000000000000000000D4
:102FD0003C42424242423C0000000000000000002F
:102FE000D864424242645840E00000000000000003
:102FF0001E22424242261A02070000000000000082
:10300000EE3220202020F800000000000000000028
:103010003E42403C02427C000000000000001010D4
:103020007C10101010100C000000000000000000C8
:10303000C642424242463B00000000000000000041
:10304000E7422424281010000000000000000000C7
:10305000D79292AAAA444400000000000000000099
:103060006E241818182476000000000000000000EC
:10307000E742242428181010E0000000000000009F
:103080007E44081010227E0000000304040404049F
:1030900008040404040404030008080808080808D5
:1030A0000808080808080808080060101010101028
:1030B0000810101010101060000000000000002028
:1030C000520C00000000000000CDA8000047F820CE
:1030D0001021A0004007FCE444244427FC2444249D
:1030E0004427FC2444245454088FFED0C5084008CB
:1030F000200BFE1000100031FC3000500091FC103D
:1031000000100011FC1104110411FC1104D5FD0084
:10311000007FFC0100010001000100110011F81105
:103120000011001100110011001100FFFE0000B39A
:10313000A30100111009207FFE40029FF410101F10
:10314000F001003FF8210821082128211001000189
:1031500000D3D002000200FFFE040004000FF008BC
:103160001018102FF0481088100FF00810081008E1
:10317000500820CEDE00003FF002000200020002F4
:10318000007FFC0480048004800880088010842074
:1031900084407C8000CAFD082049202A20083EFF88
:1031A000442A44494488A41028FE2822104210646E
:1031B0002818283444C282BEDD200023FC220422C9
:1031C00004FBFC222022202BFE3220E22022FC22C3
:1031D0008422842484A4FC4884C8AB00000000003E
:1031E0000000380000300000680000440000C20009
:1031F0000181000300C00600700FFFFE1018086078
:10320000180000180000180000186003FF80001864
:10321000000018000018000018081FFFFC00000044
:10322000000000B6AF0000000000000001800001B7
:10323000000061003F810000010000010C0007FC5C
:1032400000310C3FC10C06010C04010C0C81080874
:1032500043081062081022082FF4083814080008E8
:10326000080011180020F8004030000000B5E70009
:103270000000000000001800001000001000001006
:10328000000FFFF008102008102008102008102060
:103290000FFFE00810200810200810200810200F51
:1032A000FFE00810000010080010080010040018CB
:1032B0000C000FF8000000D7D30000000000000051
:1032C00000200FFFF00000600000800003000014E9
:1032D0000000180000180000180C7FFFFE00180006
:1032E0000018000018000018000018000018000066
:1032F000180000180000180000F80000300000005E
:1033000000BCBC00000004000007018006010006AC
:10331000010006010006C10C3F3FF0060100060156
:103320000006010006FFF80708103E0830260420BA
:103330000604600602400602C006018006038006FD
:103340000C601E103E0CE00C000000CAF5000000EE
:10335000000000001C000019800018E00018600048
:10336000182800181C3FFFE0003C00007C00005AB9
:103370000000DA000099000119800318C0061860E7
:1033800004183808181E30180840180000180000EB
:103390001800000000C8AB000000000000000000A2
:1033A000030000000380000007800000068000008A
:1033B0000C4000001C2000001830000030180000F5
:1033C000600C0000C00700018003C0030002F80782
:1033D000FFFF7C08018090300180004001800000E8
:1033E000018000000181000001838001FFFFC00017
:1033F00001800000018000000180000001800000C9
:1034000001800000018010000180381FFFFFFC00D8
:1034100000000000000000B6AF0000000000000047
:10342000000000080000000E0000000C00000C0C62
:10343000003FFE0C0010000C0000000C0000000C0F
:10344000180000FFFC00020C1800070C183FFF8C4E
:103450001801C00C1801C00C1801800818030008DE
:10346000180210181806081818040C10180806106E
:1034700018100630102FFB20103E0360101002C001
:10348000300000803000010C30000203E0000C012D
:10349000E00010008000000000B5E7000000000020
:1034A0000000000003000000038000000300000093
:1034B000030000000300000003000007FFFFC00638
:1034C0000300C0060300C0060300C0060300C006D8
:1034D0000300C0060300C007FFFFC0060300C006CC
:1034E0000300C0060300C0060300C0060300C007B7
:1034F000FFFFC00603008006030000000300100069
:1035000003000800030008000300180003801C00EB
:1035100001FFF80000000000000000D7D300000009
:10352000000000000000000000000000C003FFFFDA
:10353000E0000001E00000030000000600000018A9
:1035400000000030000001C0000001C00000018048
:103550000000018010000180383FFFFFFC00018067
:103560000000018000000180000001800000018057
:103570000000018000000180000001800000018047
:1035800000000180000001800000018000003F80F9
:1035900000000700000002000000000000BCBC00AA
:1035A000000000000000000180080001C00E0001C2
:1035B000800C0001800C0001800C0001800C0001D7
:1035C000980C183FFFFFFC01800C0001800C0001EB
:1035D000800C0001800C00018C0C2001B3FFF00175
:1035E000C080600F8080603D8040C0318040C0015D
:1035F000802180018021800180330001801E000134
:10360000800C0001801E00018037000180E3C01F94
:103610008380F8078E007C0230000000000000CAA2
:10362000F50000000000000000000100000001C0E3
:103630000000018C000001870000018380000181EF
:103640008000018080000180303FFFFFF81003C040
:10365000000007C0000007A000000DA000000D90B2
:1036600000001990000019980000318C000061865C
:103670000000C1870000818380018181C003018037
:10368000F00401807C080180381001801060018006
:103690000000018000000180000001000000000027
:1036A00000000000C4360008000000201C000000DC
:1036B00026260008E03600081C0000205C190000E7
:1036C0003626000800000000000000000000000096
:1036D00001000000040000000000000000002000C5
:04000005080000C12E
:00000001FF
