:020000040800F2
:10000000380D0020D5000008791400082B130008D3
:1000100000000000000000000000000000000000E0
:10002000000000000000000000000000C3140008F1
:100030000000000000000000C1140008C514000802
:10004000E7000008E7000008E7000008E7000008F4
:10005000E7000008E7000008E7000008E7000008E4
:1000600000000000E7000008E7000008090200089F
:10007000E7000008E7000008E7000008E7000008C4
:10008000E7000008E7000008E700000800000000A3
:10009000E7000008E7000008E7000008E7000008A4
:1000A000E7000008E7000008E7000008E700000894
:1000B0002D1A0008E7000008000000000000000002
:1000C0000348854600F08EF800480047CD1A000826
:1000D000380D00200448804704480047FEE7FEE74B
:1000E000FEE7FEE7FEE7FEE741150008C100000855
:1000F00030B50B46014600202022012409E00D46C0
:10010000D5409D4205D31D469540491B2546954047
:1001100040191546521E002DF1DC30BDF0B51FB45C
:100120000646002082B005464024019100901BE065
:10013000019922460F46304600F042F8049A059B8A
:10014000801A994110D310461946224600F028F82B
:10015000361A8F410197224601200021009F00F0AE
:100160001FF838184D4100902046641E0028DFDC3F
:10017000019B00982946324607B0F0BDD2B201E09B
:100180000270401C491EFBD270470022F6E710B5F2
:1001900013460A4604461946FFF7F0FF204610BDF5
:1001A00010B5202A04DB0146203A9140002010BD02
:1001B000914020239C1A0346E3401943904010BD10
:1001C00010B5202A04DB0846203AD040002110BD9B
:1001D0000B46D340D0402024A21A91400843194630
:1001E00010BD0000064C0125064E05E0E36807CC73
:1001F0002B430C3C98471034B442F7D3FFF764FF0D
:10020000381B0008581B000810B5024800F065F8BC
:1002100010BD0000EC08002030B5446C1C252C40BB
:100220000125A540046C6560046863608368102B39
:10023000036803D099600068C26030BD9A600068AE
:10024000C16030BD704730B5014620314A79002386
:10025000022A04D00422C2630B71012030BD02685F
:1002600014680E25AC4314600268146864086400C6
:100270001460446C1C22144001221546006CA540F9
:1002800045604A7118460B7130BD70B500240146B7
:1002900020314A79022A03D00421C163012418E0E5
:1002A000026813680E25AB431360026813685B088D
:1002B0005B001360436C1C221340012215469D40D5
:1002C000036C5D604A7100220A71816B002900D0C5
:1002D0008847204670BDC06B7047F0B4016C0D6854
:1002E00001680C68466C1C2304221E401746B74068
:1002F0002F420ED067070CD50C68A40602D40C68F8
:1003000094430C60416C19408A40016C4A60016B57
:100310001AE00227B74002462F402032002F17D0A4
:10032000A70715D50C68A40605D40C680A25AC43AC
:100330000C6001215171446C02211C40036CA140EE
:10034000596000211171C16A002918D0F0BC08471A
:100350000827B7402F4212D0240710D50C680E256D
:10036000AC430C60446C01211C400B46A340046C60
:100370006360C163517100211171416BE4E7F0BC0E
:100380007047000070B504003CD01F482568142158
:100390002818FFF7ADFE800060641C48206402212D
:1003A000204620300246417129681948E36801401F
:1003B000A06866691843236933431843A369184347
:1003C000E3691843236A1843084328600121A068A1
:1003D0008903884210D00D488030836A656C1C21E7
:1003E0000D400F26AE40B3438362656C63680D40D9
:1003F000816AAB400B4383620020E06301215171AD
:10040000107170BD012070BDF8FFFDBF00000240FB
:100410000F80FFFFF8B504468C4620300179002597
:10042000012909D00126067141790027012905D04B
:10043000077102252846F8BD0220F8BD022141714E
:10044000E763206801684908490001606146204669
:10045000FFF7E2FE206B00282068016801D00E2221
:1004600005E0042291430160206801680A221143DB
:1004700001602068016831430160DBE770B5044624
:1004800000F0D6F80546601C02D004480078241815
:1004900000F0CEF8401BA042FAD370BD040000204B
:1004A000FCB500230124A7E027462A469F403A4096
:1004B0006FD04D68012D05D0022D03D0112D01D034
:1004C000122D16D185680326AC465D00AE46AE40BF
:1004D0006546B543AC46CE687546AE4065462E438C
:1004E000866046680D79BE43ED06ED0F9D403543AD
:1004F0004560C6685F000325BD40AE46AE43354645
:100500008E68BE402E43C6604E68022E01D0122E69
:1005100014D1DE08B60036180196366A5D07B44677
:10052000EE0E0F25B54000966646AE43B4460D6903
:10053000009EB54066462E43019D2E6206687546B4
:10054000AE430D79AD07AD0FBD40354305604D6835
:10055000ED0050D52B4D6E6B26436E639E082A4DE1
:10056000B6007519AC46AD689E07360F0F27B74029
:10057000BD4305273F07B84201D100271AE0234FAA
:10058000B84201D1012715E0214FB84202D102271C
:1005900010E030E01F4FB84201D103270AE01E4FA0
:1005A000B84201D1042705E01C4FB84201D105270C
:1005B00000E00627B7402F436546AF60184D2E6810
:1005C0004F689643FF0300D516432E606E684F6850
:1005D0009643BF0300D516436E60AE684F689643DE
:1005E000FF0200D51643AE60EE684F689643BF0227
:1005F00000D51643EE605B1C0A681546DA4000D051
:1006000052E7FCBD00100240000001400004005011
:1006100000080050000C005000100050001C00505A
:1006200000040140002A01D0816170478162704757
:10063000014880687047000004000020024881687B
:1006400002788918816070470400002010B50848BE
:1006500000240168402211430160204600F00AF89E
:10066000002801D0012401E000F026F8204610BD4A
:100670000020024070B504460D4D7D202978C00051
:10068000FFF736FD01460B480068FFF731FD00F02B
:10069000C1FC002809D1042C07D200222146401EAB
:1006A00000F020F800206C6070BD012070BD0000DB
:1006B00004000020100000200448416B0122114377
:1006C0004163816B02041143816370470010024053
:1006D000C106C90E0120884001490860704700002A
:1006E00000E100E010B500F0C9FE10BDF8B5044609
:1006F0000078594D800672D5574E0027403EB06BAA
:10070000C00004D4B06BA9050843B0630127534867
:100710000168C90511D40168821511430160FFF712
:1007200087FF009005E0FFF783FF0099401A6428D7
:1007300037D84A480068C005F5D532680321090555
:1007400060680A400140914208D08103890F032963
:1007500004D13168890301D50120F8BD2A6903213C
:1007600009040A4022D0084090421FD02078800619
:100770001CD528692A6988430121C9040A432A61D2
:100780002A698A432A612861C0050FD5FFF750FF07
:10079000009008E0FFF74CFF0099411A3048814271
:1007A00001D90320F8BD28698005F3D56168880365
:1007B000800F032805D132680005824301400A43B7
:1007C00032602869032261681204114008432861DD
:1007D000002F04D0B16B012000078143B163207862
:1007E000C00705D0E868A168800880000843E86079
:1007F0002078800705D5E8680C218843E168084324
:10080000E8602078400706D5E8680321890288431C
:1008100021690843E8602078000706D5E8680321CD
:100820000903884361690843E8602088C00506D54C
:10083000E868032109048843A1690843E860207837
:10084000000606D5E868032189048843E169084366
:10085000E8600020F8BD0000401002400070004039
:1008600088130000F8B50E4605007DD05348006897
:10087000C007C00FB0420AD2504801684908490079
:10088000314301600068C007C00FB04271D12878C1
:100890004B4C800705D5E068F0218843A9680843E0
:1008A000E0602878C00752D06868022817D0032873
:1008B00018D02168012818D08905002959DAE16883
:1008C000890889000143E160FFF7B2FE69680746C5
:1008D000022912D003291CD0012926D033E0216837
:1008E0008903EAE721688901E7E74907E5E7FFF7B8
:1008F0009FFEC11B3348814223D8E0680007800F68
:100900000228F4D123E0FFF793FEC11B2D4881425A
:1009100017D8E0680007800F0328F4D117E0FFF72D
:1009200087FEC11B274881420BD8E0680007800F73
:100930000128F4D10BE0FFF77BFEC11B2148814267
:1009400001D90320F8BDE0680007800FF3D11B48F0
:100950000168C907C90FB1420DD9016849084900AA
:1009600031430160006800E003E0C007C00FB042FF
:1009700001D00120F8BD2878400706D5E06807219E
:1009800009028843E9680843E0602878000707D532
:10099000E0680721C90288432969C9000843E0606B
:1009A00000F036F8E168084A0906090F515CC840B2
:1009B000064908600020FFF75DFEF8BD00200240F8
:1009C0000010024088130000141B000810000020D3
:1009D000044805490068C968044A4905490F515C43
:1009E000C840704710000020001002402D1B000876
:1009F000044805490068C968044A8904490F515CE4
:100A0000C840704710000020001002402D1B000855
:100A100010B5184AD1680C20084004280BD00828CB
:100A200010D00C2810D050680004410F0120C003E2
:100A3000491C884010BD1068C00601D50E4810BD85
:100A40000E4810BD0E4810BD88020E4B000F185CFA
:100A50000902D368890F491CDB0301D5084A05E068
:100A60001268D20601D5044A00E0044A5043FFF759
:100A70003FFB10BD0010024000093D000024F400BF
:100A800000127A00241B0008FEB505007ED0FE4C43
:100A9000E7680C20E668074001200004064028783B
:100AA000C00747D0082F05D00C2F0AD10120000421
:100AB000864206D1206880033CD568680028E5D0CE
:100AC00038E0012069680004814203D121680143B4
:100AD000216011E0052301221B0492049942216840
:100AE00002D111432160F1E7814321602168014077
:100AF0000091206890432060686800280DD0FFF7BF
:100B000097FD009005E0FFF793FD0099401A6428D7
:100B10007ED820688003F6D50CE0FFF789FD0090B1
:100B200005E0FFF785FD0099401A6428F0D8206899
:100B30008003F6D4287880075CD5E868810604D560
:100B4000226820210A43226088430923042F0DD004
:100B50000C2F01D1002E09D000283BD021689943E9
:100B600001432160FFF764FD064627E0216849073D
:100B700001D500288AD061681F22120291432A6998
:100B80001202114361602168994300E08EE1014344
:100B90002160FFF73DFFE16809060A0FBB49895C48
:100BA000C840BB4908600020FFF764FD002873D1EE
:100BB00020E0FFF73DFD801B0228A9D820684007F0
:100BC000F7D560681F210902884329690902084393
:100BD00060600FE02068400840002060FFF728FDBB
:100BE000064604E0FFF724FD801B022890D8206809
:100BF0004007F7D42878C00660D5002F0DD0A8692B
:100C000000284AD02068FF2101310843206000E01D
:100C1000C4E0FFF70DFD06462CE02068800502D5F4
:100C2000A8690028A6D06068072149038843296A7B
:100C3000084360606068297F0002000A09060843D3
:100C40006060286A410B0120C003491C8840E168AC
:100C500009060A0F8D49895CC8408D49086000204B
:100C6000FFF708FD002817D128E0FFF7E1FC801B03
:100C70000228A2D820688005F7D5606807214903BB
:100C80008843296A084360606068297F0002000A7F
:100C900009060843606011E0E1E02168FF200130AF
:100CA00081432160FFF7C4FC064604E0FFF7C0FC67
:100CB000801B022872D820688005F7D42878754EEA
:100CC000000724D568690028306910D00121084345
:100CD0003061FFF7ADFC009005E0FFF7A9FC00993B
:100CE000401A02285AD830698007F6D50FE040082C
:100CF00040003061FFF79CFC009005E0FFF798FC96
:100D00000099401A022849D830698007F6D428781B
:100D1000400765D500200290A06BC00006D4A06BF0
:100D2000012109070843A063012002905A48016885
:100D3000C90511D40168821511430160FFF778FCE1
:100D4000009005E0FFF774FC0099401A642825D84C
:100D500051480068C005F5D5FF20AA6801308242DD
:100D600003D131690143316111E001218902002A77
:100D700007D005231B029A4203D132690A4332612C
:100D8000EFE7326982433261306988433061A86895
:100D900000280FD0FFF74CFC009007E05EE0FFF763
:100DA00047FC0099411A3D48814257D83069800577
:100DB000F5D50DE0FFF73CFC009006E0FFF738FCAE
:100DC0000099411A3548814248D830698005F5D4E8
:100DD0000298002804D0A16B012000078143A16381
:100DE000686A002864D00C2F3ED0012636060228FF
:100DF000206805D0B0432060FFF71AFC05462FE0BD
:100E0000B0432060FFF714FC074604E0FFF710FC36
:100E1000C01B022822D820688001F7D4E96AA86A9A
:100E2000E2680843296BFD231B049A4311430843DE
:100E3000E060206830432060FFF7FAFB054604E0DD
:100E4000FFF7F6FB401B022808D820688001F7D581
:100E50002EE0FFF7EDFB401B022801D90320FEBD69
:100E600020688001F5D423E00128F8D0E068012152
:100E70000904AA6A0140914218D10F218904EA6A43
:100E80000140914212D10BE000100240141B0008F7
:100E90001000002040100240007000408813000045
:100EA000032189050840296B884201D00120FEBD3D
:100EB0000020FEBDF8B51D4616460F46040003D0BF
:100EC000606F002802D007E00120F8BD00217020EB
:100ED0000155204600F07AF92420606720680168F7
:100EE000490849000160204600F050FC0128ECD080
:100EF000606A002802D0204600F04CFB2068816820
:100F00000122920311438160216888685200904356
:100F10003843886071052804226808431168064B2D
:100F200019400143116020680168012211430160EA
:100F3000204600F095FBF8BDFFFF00FC70B50400F3
:100F400007D0002625464035A662687C002802D0DE
:100F500005E0012070BD2E74204600F02FF802201D
:100F6000687420680168402291430160A16860684C
:100F700022690843E168114308436169012208437B
:100F8000A169520211400843E1690843216A0843FC
:100F9000A16A084321680860A0690421000C084088
:100FA000616A0843216848602068C16992009143E2
:100FB000C161666501206874002070BD10B586B0FF
:100FC000044614216846FFF7E0F81049206888427B
:100FD00019D10F48416B821411434163C16A012248
:100FE0001143C162C06A002110400590E0200090CA
:100FF000022001900320039002910491052069468C
:101000000007FFF74DFA06B010BD000000300140A8
:1010100000100240094910B5401E884201D9012044
:1010200010BD074C60610321081F00F027FA002063
:10103000A06107202061002010BD0000FFFFFF001D
:1010400000E000E0704710B50446406FA16F2068D3
:101050008268520614D5222912D181684022914318
:101060008160E06E002808D0FFF7EDF8002804D07A
:10107000E06EFFF730F9202804D0204600F076FB20
:10108000002010BD1020E067032010BD7047000055
:10109000F8B502680446D0691168936805072D0FFA
:1010A0005BD0DD07ED0FFF2621360E402E4367D0C3
:1010B000C60706D0CE0504D501261662E26F32437C
:1010C000E267870702220426002F06DADF0704D032
:1010D00027683A62E76F3743E767470706D5DB07BC
:1010E00004D023681E62E36F1343E367020709D548
:1010F00020220A402A4305D0236808221A62E36F9F
:101100001343E367E26F002A2FD0800606D58806D6
:1011100004D5216E002901D020468847E06F216860
:101120008968490601D4000724D5204600F01EFB3B
:1011300020688168490619D5816840229143816001
:10114000E06E002812D020498163E06EFFF79DF821
:1011500000280AD0E06E816B06E0850610D58D066A
:101160000ED5216E1CE020468847F8BD2046FFF7CB
:101170008DFFF8BD2046FFF789FF0020E067F8BD2E
:10118000C50208D55B0206D5012000051062204685
:10119000FFF758FFF8BD030605D50B0603D5616EB2
:1011A0000029E0D1F8BD4006FCD54806FAD5136801
:1011B000204640218B431360202161670021616636
:1011C00000F0B2F8F8BD0000C1160008F0B587B015
:1011D000064614216846FEF7D8FF20493068884249
:1011E00039D11F49886B0122520410438863C86AB1
:1011F00001221043C862C86A0025104005900E20E5
:1012000000900220019003200390042705200295FE
:10121000694604970007FFF743F9134C1148A5608E
:10122000E56081C4E56080202561A0602020A56183
:1012300060610D48083CFFF7A5F8002801D0FFF7D2
:1012400001F8F466002211461C20A662FFF74AFA54
:101250001C20FFF73DFA07B0F0BD0000004400403D
:101260000010024058000240EC080020F8B5044687
:10127000806F20284DD100290BD0002A09D00123EE
:10128000A0681B03984206D12069002803D1C80733
:1012900001D00120F8BD25466035287C012838D0D2
:1012A000012028745820616502530026E667222039
:1012B000A067E06E002819D01749C162E16E174897
:1012C0000863E16E16484863E06E13468663676DF7
:1012D00021683A462431E06EFFF79CF8002805D0DB
:1012E0001020E0672E7420206067D2E72E742068FB
:1012F0000168FF22013211430160206881680122E8
:101300001143816020688168402211438160002080
:10131000F8BD0220F8BD000025170008631700087B
:10132000D5160008704770477047FEE708B50848B3
:10133000016B012211430163006B104000220090F9
:1013400011460B20FFF7CEF90B20FFF7C1F908BDBE
:1013500000100240F0B587B014216846FEF715FF73
:101360002348C26A80210A43C262C26A0A400592C7
:10137000C16A01252943C162C16A29400591C16A38
:1013800002242143C162C16A21400591C26A04213D
:101390000A43C262C06A052708403F070590002241
:1013A00010213846FFF73EF90D263603012231465B
:1013B0001048FFF737F91020009002946946019514
:1013C00003943846FFF76CF8019569460948009682
:1013D00002950394FFF764F80320C00200900020F8
:1013E0000190029069460448FFF75AF807B0F0BD33
:1013F00000100240000400500008005010B50E48D4
:101400000C490160FF210531416000218160C1600C
:1014100001614161C1610122016252024162826146
:1014200081620721C162FFF789FD002801D0FEF724
:1014300009FF10BD003001401408002010B50D4810
:101440000B490160E1214902416000218160C160D6
:1014500001618161C1610C22016242610B464162FE
:101460000A46FFF727FD002801D0FEF7EBFE10BD6E
:10147000004400406C080020704700008307FF22F2
:10148000DB0E9A408907090E994000280BDA000705
:10149000000F0838830808489B001818C369934355
:1014A0000B43C3617047830804489B001B181868EE
:1014B000904308431860704700ED00E000E400E04E
:1014C0007047704710B5FFF7B9F810BD30B59BB045
:1014D00034216846FEF759FE14210DA8FEF755FE8B
:1014E000202112A8FEF751FE144801680322D202FF
:1014F0009143C21489180160022501200390102035
:101500000995049080030B900001009500240C9035
:101510000A946846FFF7B8FA0F200D9003200E904A
:101520000F941094012111940DA8FFF79BF912A8B4
:1015300012951594FFF7DAF81BB030BD007000402B
:1015400010480168821511430160C1680E4A1140BC
:10155000C16001680D4A1140016081684908490075
:10156000816001680122920491430160C168FD22FB
:1015700012049143C160002101610549C0038860E4
:1015800070470000001002400C40FF88F6FFF6FE96
:1015900000ED00E010B5818CC90707D001684A68EA
:1015A00001235B049A43836A1A434A60818C89074A
:1015B00007D501684A6801231B049A43C36A1A438A
:1015C0004A60818C490707D501684A6801239B045A
:1015D0009A43036B1A434A60818C090707D5016857
:1015E0004A680123DB039A43436B1A434A60818CA8
:1015F000C90607D50268916801231B039943836BD1
:1016000019439160818C890607D501688A68012396
:101610005B039A43C36B1A438A60818C490612D5D7
:1016200003685A6801210905046C8A4322435A6001
:10163000026C8A4207D10268516803235B05994313
:10164000436C19435160818C090607D501684A68CB
:101650000123DB04806C9A4302434A6010BD000002
:10166000F8B500260446C667FEF7E2FF0546206887
:101670000068124F000709D501212B4600224905B9
:101680002046009700F0A0F900280DD120680068DE
:1016900040070BD501212B460022890520460097E3
:1016A00000F092F9002801D00320F8BD20206067E7
:1016B000A067603426740020F8BD0000FFFFFF0122
:1016C00010B5806A0022014640314A834A82FFF702
:1016D000DDFC10BD70B5846A626FA06F21688968F7
:1016E0000B060021002B0ADA212A08D152221153BD
:1016F00022681368C025AB4313602022626722680A
:101700009268520606D5222804D15A200153204659
:1017100000F02CF8E06F10210843E0672046FFF747
:10172000B5FC70BD10B501460968806A0968890674
:1017300014D400225A210A5201680A68FF23013397
:101740009A430A6001688A68520852008A600168F8
:101750008A6840239A438A6020218167FFF7E2FD6F
:1017600010BD10B5806AFFF7DEFD10BD01680A6884
:10177000FF2321339A430A6001688A6852085200A5
:101780008A6020218167002101667047F8B5044610
:101790002669A268E76932436669102000253E4346
:1017A000236832437B491E687B4F3E4016431E60D0
:1017B0002268536803263603B343E6683343536015
:1017C0002368A2698B4201D0266A32439E680B27A8
:1017D0003F02BE4316439E60704E2368704AB34278
:1017E0000CD1D2689207920F06D0012A3ED0022A6D
:1017F0003AD0032A26D124E0012023E0694EB342E7
:101800000AD1D2680C2632402CD0042A2ED0082AC5
:101810002AD00C2A16D114E0634EB34222D0634E74
:10182000B3421FD08B420DD1D668032292021640DC
:1018300018D001229202B61A18D0B61A14D09642C5
:1018400000D10820564A0126403A594FF6038B42F0
:1018500036D100280CD002280DD0042812D0082838
:101860001FD11CE00020EDE70220EBE70420E9E7B0
:10187000FFF7AEF808E01068C00601D5384605E06D
:101880004C4803E0FFF7C4F8002873D062685100A9
:101890005118814205D81103814202D303E030463A
:1018A000F4E7012566E0010E060250080023301817
:1018B0005941FEF733FC03210902411A3E4A55E023
:1018C000E169B14232D1030000F0E4F809070A0DE2
:1018D00006250606062B0600E3E7FFF779F81CE06D
:1018E000FFF786F819E010686168C00602D548085D
:1018F000324A01E0324A48088018FEF7F9FB80B20C
:101900000146304A10399142CBD8511C01400007A2
:10191000400F08432CE0FFF77BF8616840004A085D
:10192000EAE76168012248081204E5E7030000F0D5
:10193000B1F809070A0D06260606062C0600B0E7D0
:10194000FFF746F81DE0FFF753F81AE010686168EA
:10195000C00602D54808C01902E016484A08101807
:10196000FEF7C6FB80B20146164A1039914298D85C
:101970002168C8600020206660662846F8BDFFF731
:1019800047F861684A088018EAE7616848088019E2
:10199000E6E7000000480040F369FFEF003801402F
:1019A0004010024000440040004C00400050004005
:1019B00000093D000024F400FFFC0F0000127A0033
:1019C0000048E801EFFF0000FFB581B017460E4662
:1019D00004460A9D09E0681C07D0FEF729FE049919
:1019E000401AA8420CD8002D0AD02068C1693046A0
:1019F000884318D00020B842EDD0002005B0F0BDDB
:101A000020680168FF22A13291430160206881684B
:101A100049084900816020206067A0670020603489
:101A200020740320EAE70120E5E7000010B5134821
:101A30000068C269124991431AD0102101620F480F
:101A4000FFF701FB0F48006840680122D2020E49EF
:101A5000101A08800D480E490378FF2B02D14078F8
:101A6000FF2809D00020087008490448FFF7FEFB52
:101A70000248FFF70DFB10BD0120F4E76C080020C1
:101A800024040000EC0800200000002014000020C6
:101A90000200002030B47446641E2578641CAB42FA
:101AA00000D21D46635D5B00E31830BC184702E0BE
:101AB00008C8121F08C1002AFAD1704770470020D9
:101AC00001E001C1121F002AFBD17047FEF7BEFDE5
:101AD000FFF7FCFCFFF73EFCFFF728FCFFF78EFC4E
:101AE000FFF7ACFC00260A4C05252D0720780128BD
:101AF000FCD1012210212846FEF794FD6420FEF758
:101B0000BDFC002210212846FEF78CFD2670EDE773
:101B10000200002000000000000000000102030499
:101B200006070809030406080C10182030000000FE
:101B30000001020304000000581B00080000002000
:101B400014000000AE1A00086C1B000814000020EE
:101B5000240D0000BE1A0008000000000100000073
:0C1B600004000000000000000000200055
:04000005080000C12E
:00000001FF
